{
  "_format": "hh-sol-artifact-1",
  "contractName": "Lottery",
  "sourceName": "contracts/Lottery.sol",
  "abi": [
    {
      "inputs": [
        {
          "internalType": "uint64",
          "name": "subscriptionId",
          "type": "uint64"
        }
      ],
      "stateMutability": "nonpayable",
      "type": "constructor"
    },
    {
      "inputs": [
        {
          "internalType": "address",
          "name": "have",
          "type": "address"
        },
        {
          "internalType": "address",
          "name": "want",
          "type": "address"
        }
      ],
      "name": "OnlyCoordinatorCanFulfill",
      "type": "error"
    },
    {
      "anonymous": false,
      "inputs": [
        {
          "indexed": true,
          "internalType": "address",
          "name": "winner",
          "type": "address"
        },
        {
          "indexed": false,
          "internalType": "uint256",
          "name": "prize",
          "type": "uint256"
        }
      ],
      "name": "GameEnded",
      "type": "event"
    },
    {
      "inputs": [],
      "name": "allGames",
      "outputs": [
        {
          "components": [
            {
              "internalType": "address[]",
              "name": "members",
              "type": "address[]"
            },
            {
              "internalType": "uint64",
              "name": "ticketPrice",
              "type": "uint64"
            },
            {
              "internalType": "uint256",
              "name": "started",
              "type": "uint256"
            },
            {
              "internalType": "uint256",
              "name": "ended",
              "type": "uint256"
            },
            {
              "internalType": "address payable",
              "name": "winner",
              "type": "address"
            },
            {
              "components": [
                {
                  "internalType": "uint256",
                  "name": "requestId",
                  "type": "uint256"
                },
                {
                  "internalType": "uint16",
                  "name": "result",
                  "type": "uint16"
                }
              ],
              "internalType": "struct Lottery.Vrf",
              "name": "vrf",
              "type": "tuple"
            }
          ],
          "internalType": "struct Lottery.Game[]",
          "name": "",
          "type": "tuple[]"
        }
      ],
      "stateMutability": "view",
      "type": "function"
    },
    {
      "inputs": [
        {
          "internalType": "uint8",
          "name": "qnt",
          "type": "uint8"
        }
      ],
      "name": "buyTicket",
      "outputs": [],
      "stateMutability": "payable",
      "type": "function"
    },
    {
      "inputs": [],
      "name": "gameEnd",
      "outputs": [],
      "stateMutability": "nonpayable",
      "type": "function"
    },
    {
      "inputs": [
        {
          "internalType": "uint64",
          "name": "ticketPrice",
          "type": "uint64"
        },
        {
          "internalType": "uint256",
          "name": "duration",
          "type": "uint256"
        }
      ],
      "name": "gameStart",
      "outputs": [
        {
          "components": [
            {
              "internalType": "address[]",
              "name": "members",
              "type": "address[]"
            },
            {
              "internalType": "uint64",
              "name": "ticketPrice",
              "type": "uint64"
            },
            {
              "internalType": "uint256",
              "name": "started",
              "type": "uint256"
            },
            {
              "internalType": "uint256",
              "name": "ended",
              "type": "uint256"
            },
            {
              "internalType": "address payable",
              "name": "winner",
              "type": "address"
            },
            {
              "components": [
                {
                  "internalType": "uint256",
                  "name": "requestId",
                  "type": "uint256"
                },
                {
                  "internalType": "uint16",
                  "name": "result",
                  "type": "uint16"
                }
              ],
              "internalType": "struct Lottery.Vrf",
              "name": "vrf",
              "type": "tuple"
            }
          ],
          "internalType": "struct Lottery.Game",
          "name": "",
          "type": "tuple"
        }
      ],
      "stateMutability": "nonpayable",
      "type": "function"
    },
    {
      "inputs": [],
      "name": "lastGame",
      "outputs": [
        {
          "internalType": "uint64",
          "name": "ticketPrice",
          "type": "uint64"
        },
        {
          "internalType": "uint256",
          "name": "started",
          "type": "uint256"
        },
        {
          "internalType": "uint256",
          "name": "ended",
          "type": "uint256"
        },
        {
          "internalType": "address payable",
          "name": "winner",
          "type": "address"
        },
        {
          "components": [
            {
              "internalType": "uint256",
              "name": "requestId",
              "type": "uint256"
            },
            {
              "internalType": "uint16",
              "name": "result",
              "type": "uint16"
            }
          ],
          "internalType": "struct Lottery.Vrf",
          "name": "vrf",
          "type": "tuple"
        }
      ],
      "stateMutability": "view",
      "type": "function"
    },
    {
      "inputs": [],
      "name": "members",
      "outputs": [
        {
          "internalType": "address[]",
          "name": "",
          "type": "address[]"
        }
      ],
      "stateMutability": "view",
      "type": "function"
    },
    {
      "inputs": [],
      "name": "owner",
      "outputs": [
        {
          "internalType": "address payable",
          "name": "",
          "type": "address"
        }
      ],
      "stateMutability": "view",
      "type": "function"
    },
    {
      "inputs": [
        {
          "internalType": "uint256",
          "name": "requestId",
          "type": "uint256"
        },
        {
          "internalType": "uint256[]",
          "name": "randomWords",
          "type": "uint256[]"
        }
      ],
      "name": "rawFulfillRandomWords",
      "outputs": [],
      "stateMutability": "nonpayable",
      "type": "function"
    },
    {
      "inputs": [],
      "name": "requestRandomWords",
      "outputs": [],
      "stateMutability": "nonpayable",
      "type": "function"
    },
    {
      "inputs": [],
      "name": "s_randomWord",
      "outputs": [
        {
          "internalType": "uint256",
          "name": "",
          "type": "uint256"
        }
      ],
      "stateMutability": "view",
      "type": "function"
    },
    {
      "inputs": [],
      "name": "s_requestId",
      "outputs": [
        {
          "internalType": "uint256",
          "name": "",
          "type": "uint256"
        }
      ],
      "stateMutability": "view",
      "type": "function"
    },
    {
      "inputs": [
        {
          "internalType": "uint256",
          "name": "amount",
          "type": "uint256"
        }
      ],
      "name": "withdraw",
      "outputs": [],
      "stateMutability": "nonpayable",
      "type": "function"
    }
  ],
  "bytecode": "0x60a0604052736a2aad07396b36fe02a22b33cf443582f682c82f600260006101000a81548173ffffffffffffffffffffffffffffffffffffffff021916908373ffffffffffffffffffffffffffffffffffffffff1602179055507384b9b910527ad5c03a9ca831909e21e236ea7b06600360006101000a81548173ffffffffffffffffffffffffffffffffffffffff021916908373ffffffffffffffffffffffffffffffffffffffff1602179055507fd4bb89654db74673a187bd804519e65e3f71a52bc55f11da7601a13dcf50531460001b600455620186a0600560006101000a81548163ffffffff021916908363ffffffff1602179055506003600560046101000a81548161ffff021916908361ffff1602179055506001600560066101000a81548163ffffffff021916908363ffffffff1602179055503480156200014657600080fd5b506040516200289a3803806200289a83398181016040528101906200016c919062000344565b600260009054906101000a900473ffffffffffffffffffffffffffffffffffffffff168073ffffffffffffffffffffffffffffffffffffffff1660808173ffffffffffffffffffffffffffffffffffffffff168152505050600260009054906101000a900473ffffffffffffffffffffffffffffffffffffffff166000806101000a81548173ffffffffffffffffffffffffffffffffffffffff021916908373ffffffffffffffffffffffffffffffffffffffff160217905550600360009054906101000a900473ffffffffffffffffffffffffffffffffffffffff16600160006101000a81548173ffffffffffffffffffffffffffffffffffffffff021916908373ffffffffffffffffffffffffffffffffffffffff16021790555033600860006101000a81548173ffffffffffffffffffffffffffffffffffffffff021916908373ffffffffffffffffffffffffffffffffffffffff16021790555080600160146101000a81548167ffffffffffffffff021916908367ffffffffffffffff1602179055505062000376565b600080fd5b600067ffffffffffffffff82169050919050565b6200031e81620002ff565b81146200032a57600080fd5b50565b6000815190506200033e8162000313565b92915050565b6000602082840312156200035d576200035c620002fa565b5b60006200036d848285016200032d565b91505092915050565b60805161250162000399600039600081816107fa015261084e01526125016000f3fe6080604052600436106100a75760003560e01c806398afa55f1161006457806398afa55f14610187578063bdd4d18d146101b6578063e0c86289146101e1578063e89e106a146101f8578063f12e22d014610223578063fd210fd914610260576100a7565b8063023697f0146100ac5780630b8eebde146100c85780631fe543e3146100df5780632e1a7d4d14610108578063465542f0146101315780638da5cb5b1461015c575b600080fd5b6100c660048036038101906100c191906115e2565b61028b565b005b3480156100d457600080fd5b506100dd610466565b005b3480156100eb57600080fd5b506101066004803603810190610101919061179e565b6107f8565b005b34801561011457600080fd5b5061012f600480360381019061012a91906117fa565b6108b8565b005b34801561013d57600080fd5b506101466109fb565b6040516101539190611b01565b60405180910390f35b34801561016857600080fd5b50610171610bc2565b60405161017e9190611b32565b60405180910390f35b34801561019357600080fd5b5061019c610be8565b6040516101ad959493929190611b9a565b60405180910390f35b3480156101c257600080fd5b506101cb610c74565b6040516101d89190611c5c565b60405180910390f35b3480156101ed57600080fd5b506101f6610d05565b005b34801561020457600080fd5b5061020d610f20565b60405161021a9190611c7e565b60405180910390f35b34801561022f57600080fd5b5061024a60048036038101906102459190611cc5565b610f26565b6040516102579190611d8e565b60405180910390f35b34801561026c57600080fd5b50610275611435565b6040516102829190611c7e565b60405180910390f35b42600a60030154116102d2576040517f08c379a00000000000000000000000000000000000000000000000000000000081526004016102c990611e0d565b60405180910390fd5b60006009805490501161031a576040517f08c379a000000000000000000000000000000000000000000000000000000000815260040161031190611e79565b60405180910390fd5b600a600301544210610361576040517f08c379a000000000000000000000000000000000000000000000000000000000815260040161035890611ee5565b60405180910390fd5b8060ff16600a60010160009054906101000a900467ffffffffffffffff166103899190611f34565b67ffffffffffffffff163410156103d5576040517f08c379a00000000000000000000000000000000000000000000000000000000081526004016103cc90611fc2565b60405180910390fd5b600033905060005b8260ff1681101561046157600a600001829080600181540180825580915050600190039060005260206000200160009091909190916101000a81548173ffffffffffffffffffffffffffffffffffffffff021916908373ffffffffffffffffffffffffffffffffffffffff160217905550808061045990611fe2565b9150506103dd565b505050565b600860009054906101000a900473ffffffffffffffffffffffffffffffffffffffff1673ffffffffffffffffffffffffffffffffffffffff163373ffffffffffffffffffffffffffffffffffffffff16146104f6576040517f08c379a00000000000000000000000000000000000000000000000000000000081526004016104ed90612077565b60405180910390fd5b600073ffffffffffffffffffffffffffffffffffffffff16600a60040160009054906101000a900473ffffffffffffffffffffffffffffffffffffffff1673ffffffffffffffffffffffffffffffffffffffff161461058a576040517f08c379a0000000000000000000000000000000000000000000000000000000008152600401610581906120e3565b60405180910390fd5b42600a6003015411156105d2576040517f08c379a00000000000000000000000000000000000000000000000000000000081526004016105c99061214f565b60405180910390fd5b6040518060400160405280600754815260200160065461ffff16815250600a6005016000820151816000015560208201518160010160006101000a81548161ffff021916908361ffff160217905550905050600a600001600a60050160010160009054906101000a900461ffff1661ffff16815481106106555761065461216f565b5b9060005260206000200160009054906101000a900473ffffffffffffffffffffffffffffffffffffffff16600a60040160006101000a81548173ffffffffffffffffffffffffffffffffffffffff021916908373ffffffffffffffffffffffffffffffffffffffff160217905550600060646061600a60010160009054906101000a900467ffffffffffffffff1667ffffffffffffffff16600a60000180549050610700919061219e565b61070a919061219e565b6107149190612227565b9050600a60040160009054906101000a900473ffffffffffffffffffffffffffffffffffffffff1673ffffffffffffffffffffffffffffffffffffffff166108fc829081150290604051600060405180830381858888f19350505050158015610781573d6000803e3d6000fd5b50600a60040160009054906101000a900473ffffffffffffffffffffffffffffffffffffffff1673ffffffffffffffffffffffffffffffffffffffff167fd4ba6fec82d9b0e8ffe50b9fed9e4be3b25c984ce1e0e016405a5528726e8a2c826040516107ed9190611c7e565b60405180910390a250565b7f000000000000000000000000000000000000000000000000000000000000000073ffffffffffffffffffffffffffffffffffffffff163373ffffffffffffffffffffffffffffffffffffffff16146108aa57337f00000000000000000000000000000000000000000000000000000000000000006040517f1cf993f40000000000000000000000000000000000000000000000000000000081526004016108a1929190612267565b60405180910390fd5b6108b4828261143b565b5050565b600860009054906101000a900473ffffffffffffffffffffffffffffffffffffffff1673ffffffffffffffffffffffffffffffffffffffff163373ffffffffffffffffffffffffffffffffffffffff1614610948576040517f08c379a000000000000000000000000000000000000000000000000000000000815260040161093f90612077565b60405180910390fd5b42600a600301541061098f576040517f08c379a0000000000000000000000000000000000000000000000000000000008152600401610986906122dc565b60405180910390fd5b600860009054906101000a900473ffffffffffffffffffffffffffffffffffffffff1673ffffffffffffffffffffffffffffffffffffffff166108fc829081150290604051600060405180830381858888f193505050501580156109f7573d6000803e3d6000fd5b5050565b60606009805480602002602001604051908101604052809291908181526020016000905b82821015610bb957838290600052602060002090600702016040518060c001604052908160008201805480602002602001604051908101604052809291908181526020018280548015610ac757602002820191906000526020600020905b8160009054906101000a900473ffffffffffffffffffffffffffffffffffffffff1673ffffffffffffffffffffffffffffffffffffffff1681526020019060010190808311610a7d575b505050505081526020016001820160009054906101000a900467ffffffffffffffff1667ffffffffffffffff1667ffffffffffffffff16815260200160028201548152602001600382015481526020016004820160009054906101000a900473ffffffffffffffffffffffffffffffffffffffff1673ffffffffffffffffffffffffffffffffffffffff1673ffffffffffffffffffffffffffffffffffffffff16815260200160058201604051806040016040529081600082015481526020016001820160009054906101000a900461ffff1661ffff1661ffff16815250508152505081526020019060010190610a1f565b50505050905090565b600860009054906101000a900473ffffffffffffffffffffffffffffffffffffffff1681565b600a8060010160009054906101000a900467ffffffffffffffff16908060020154908060030154908060040160009054906101000a900473ffffffffffffffffffffffffffffffffffffffff169080600501604051806040016040529081600082015481526020016001820160009054906101000a900461ffff1661ffff1661ffff1681525050905085565b6060600a600001805480602002602001604051908101604052809291908181526020018280548015610cfb57602002820191906000526020600020905b8160009054906101000a900473ffffffffffffffffffffffffffffffffffffffff1673ffffffffffffffffffffffffffffffffffffffff1681526020019060010190808311610cb1575b5050505050905090565b600860009054906101000a900473ffffffffffffffffffffffffffffffffffffffff1673ffffffffffffffffffffffffffffffffffffffff163373ffffffffffffffffffffffffffffffffffffffff1614610d95576040517f08c379a0000000000000000000000000000000000000000000000000000000008152600401610d8c90612077565b60405180910390fd5b42600a600301541115610ddd576040517f08c379a0000000000000000000000000000000000000000000000000000000008152600401610dd49061214f565b60405180910390fd5b6000600a6005016000015414610e28576040517f08c379a0000000000000000000000000000000000000000000000000000000008152600401610e1f90612348565b60405180910390fd5b60008054906101000a900473ffffffffffffffffffffffffffffffffffffffff1673ffffffffffffffffffffffffffffffffffffffff16635d3b1d30600454600160149054906101000a900467ffffffffffffffff16600560049054906101000a900461ffff16600560009054906101000a900463ffffffff16600560069054906101000a900463ffffffff166040518663ffffffff1660e01b8152600401610ed59594939291906123af565b6020604051808303816000875af1158015610ef4573d6000803e3d6000fd5b505050506040513d601f19601f82011682018060405250810190610f189190612417565b600781905550565b60075481565b610f2e611474565b600860009054906101000a900473ffffffffffffffffffffffffffffffffffffffff1673ffffffffffffffffffffffffffffffffffffffff163373ffffffffffffffffffffffffffffffffffffffff1614610fbe576040517f08c379a0000000000000000000000000000000000000000000000000000000008152600401610fb590612077565b60405180910390fd5b42600a6003015410611005576040517f08c379a0000000000000000000000000000000000000000000000000000000008152600401610ffc906122dc565b60405180910390fd5b60006040518060c00160405280600067ffffffffffffffff81111561102d5761102c61165b565b5b60405190808252806020026020018201604052801561105b5781602001602082028036833780820191505090505b5081526020018567ffffffffffffffff16815260200142815260200184426110839190612444565b8152602001600073ffffffffffffffffffffffffffffffffffffffff168152602001604051806040016040528060008152602001600061ffff1681525081525090506009819080600181540180825580915050600190039060005260206000209060070201600090919091909150600082015181600001908051906020019061110d9291906114d0565b5060208201518160010160006101000a81548167ffffffffffffffff021916908367ffffffffffffffff160217905550604082015181600201556060820151816003015560808201518160040160006101000a81548173ffffffffffffffffffffffffffffffffffffffff021916908373ffffffffffffffffffffffffffffffffffffffff16021790555060a0820151816005016000820151816000015560208201518160010160006101000a81548161ffff021916908361ffff1602179055505050505080600a60008201518160000190805190602001906111f19291906114d0565b5060208201518160010160006101000a81548167ffffffffffffffff021916908367ffffffffffffffff160217905550604082015181600201556060820151816003015560808201518160040160006101000a81548173ffffffffffffffffffffffffffffffffffffffff021916908373ffffffffffffffffffffffffffffffffffffffff16021790555060a0820151816005016000820151816000015560208201518160010160006101000a81548161ffff021916908361ffff1602179055505050905050600a6040518060c00160405290816000820180548060200260200160405190810160405280929190818152602001828054801561134957602002820191906000526020600020905b8160009054906101000a900473ffffffffffffffffffffffffffffffffffffffff1673ffffffffffffffffffffffffffffffffffffffff16815260200190600101908083116112ff575b505050505081526020016001820160009054906101000a900467ffffffffffffffff1667ffffffffffffffff1667ffffffffffffffff16815260200160028201548152602001600382015481526020016004820160009054906101000a900473ffffffffffffffffffffffffffffffffffffffff1673ffffffffffffffffffffffffffffffffffffffff1673ffffffffffffffffffffffffffffffffffffffff16815260200160058201604051806040016040529081600082015481526020016001820160009054906101000a900461ffff1661ffff1661ffff16815250508152505091505092915050565b60065481565b600a60000180549050816000815181106114585761145761216f565b5b602002602001015161146a919061249a565b6006819055505050565b6040518060c0016040528060608152602001600067ffffffffffffffff1681526020016000815260200160008152602001600073ffffffffffffffffffffffffffffffffffffffff1681526020016114ca61155a565b81525090565b828054828255906000526020600020908101928215611549579160200282015b828111156115485782518260006101000a81548173ffffffffffffffffffffffffffffffffffffffff021916908373ffffffffffffffffffffffffffffffffffffffff160217905550916020019190600101906114f0565b5b5090506115569190611578565b5090565b604051806040016040528060008152602001600061ffff1681525090565b5b80821115611591576000816000905550600101611579565b5090565b6000604051905090565b600080fd5b600080fd5b600060ff82169050919050565b6115bf816115a9565b81146115ca57600080fd5b50565b6000813590506115dc816115b6565b92915050565b6000602082840312156115f8576115f761159f565b5b6000611606848285016115cd565b91505092915050565b6000819050919050565b6116228161160f565b811461162d57600080fd5b50565b60008135905061163f81611619565b92915050565b600080fd5b6000601f19601f8301169050919050565b7f4e487b7100000000000000000000000000000000000000000000000000000000600052604160045260246000fd5b6116938261164a565b810181811067ffffffffffffffff821117156116b2576116b161165b565b5b80604052505050565b60006116c5611595565b90506116d1828261168a565b919050565b600067ffffffffffffffff8211156116f1576116f061165b565b5b602082029050602081019050919050565b600080fd5b600061171a611715846116d6565b6116bb565b9050808382526020820190506020840283018581111561173d5761173c611702565b5b835b8181101561176657806117528882611630565b84526020840193505060208101905061173f565b5050509392505050565b600082601f83011261178557611784611645565b5b8135611795848260208601611707565b91505092915050565b600080604083850312156117b5576117b461159f565b5b60006117c385828601611630565b925050602083013567ffffffffffffffff8111156117e4576117e36115a4565b5b6117f085828601611770565b9150509250929050565b6000602082840312156118105761180f61159f565b5b600061181e84828501611630565b91505092915050565b600081519050919050565b600082825260208201905092915050565b6000819050602082019050919050565b600081519050919050565b600082825260208201905092915050565b6000819050602082019050919050565b600073ffffffffffffffffffffffffffffffffffffffff82169050919050565b60006118aa8261187f565b9050919050565b6118ba8161189f565b82525050565b60006118cc83836118b1565b60208301905092915050565b6000602082019050919050565b60006118f082611853565b6118fa818561185e565b93506119058361186f565b8060005b8381101561193657815161191d88826118c0565b9750611928836118d8565b925050600181019050611909565b5085935050505092915050565b600067ffffffffffffffff82169050919050565b61196081611943565b82525050565b61196f8161160f565b82525050565b60006119808261187f565b9050919050565b61199081611975565b82525050565b600061ffff82169050919050565b6119ad81611996565b82525050565b6040820160008201516119c96000850182611966565b5060208201516119dc60208501826119a4565b50505050565b600060e08301600083015184820360008601526119ff82826118e5565b9150506020830151611a146020860182611957565b506040830151611a276040860182611966565b506060830151611a3a6060860182611966565b506080830151611a4d6080860182611987565b5060a0830151611a6060a08601826119b3565b508091505092915050565b6000611a7783836119e2565b905092915050565b6000602082019050919050565b6000611a9782611827565b611aa18185611832565b935083602082028501611ab385611843565b8060005b85811015611aef5784840389528151611ad08582611a6b565b9450611adb83611a7f565b925060208a01995050600181019050611ab7565b50829750879550505050505092915050565b60006020820190508181036000830152611b1b8184611a8c565b905092915050565b611b2c81611975565b82525050565b6000602082019050611b476000830184611b23565b92915050565b611b5681611943565b82525050565b611b658161160f565b82525050565b604082016000820151611b816000850182611966565b506020820151611b9460208501826119a4565b50505050565b600060c082019050611baf6000830188611b4d565b611bbc6020830187611b5c565b611bc96040830186611b5c565b611bd66060830185611b23565b611be36080830184611b6b565b9695505050505050565b600082825260208201905092915050565b6000611c0982611853565b611c138185611bed565b9350611c1e8361186f565b8060005b83811015611c4f578151611c3688826118c0565b9750611c41836118d8565b925050600181019050611c22565b5085935050505092915050565b60006020820190508181036000830152611c768184611bfe565b905092915050565b6000602082019050611c936000830184611b5c565b92915050565b611ca281611943565b8114611cad57600080fd5b50565b600081359050611cbf81611c99565b92915050565b60008060408385031215611cdc57611cdb61159f565b5b6000611cea85828601611cb0565b9250506020611cfb85828601611630565b9150509250929050565b600060e0830160008301518482036000860152611d2282826118e5565b9150506020830151611d376020860182611957565b506040830151611d4a6040860182611966565b506060830151611d5d6060860182611966565b506080830151611d706080860182611987565b5060a0830151611d8360a08601826119b3565b508091505092915050565b60006020820190508181036000830152611da88184611d05565b905092915050565b600082825260208201905092915050565b7f4c6173742067616d6520656e6465640000000000000000000000000000000000600082015250565b6000611df7600f83611db0565b9150611e0282611dc1565b602082019050919050565b60006020820190508181036000830152611e2681611dea565b9050919050565b7f4e6f2067616d6573207965740000000000000000000000000000000000000000600082015250565b6000611e63600c83611db0565b9150611e6e82611e2d565b602082019050919050565b60006020820190508181036000830152611e9281611e56565b9050919050565b7f47616d6520616c726561647920656e6465640000000000000000000000000000600082015250565b6000611ecf601283611db0565b9150611eda82611e99565b602082019050919050565b60006020820190508181036000830152611efe81611ec2565b9050919050565b7f4e487b7100000000000000000000000000000000000000000000000000000000600052601160045260246000fd5b6000611f3f82611943565b9150611f4a83611943565b92508167ffffffffffffffff0483118215151615611f6b57611f6a611f05565b5b828202905092915050565b7f5472616e7366657220616d6f756e7420657863656564732062616c616e636500600082015250565b6000611fac601f83611db0565b9150611fb782611f76565b602082019050919050565b60006020820190508181036000830152611fdb81611f9f565b9050919050565b6000611fed8261160f565b91507fffffffffffffffffffffffffffffffffffffffffffffffffffffffffffffffff8214156120205761201f611f05565b5b600182019050919050565b7f596f7520617265206e6f7420616e206f776e6572000000000000000000000000600082015250565b6000612061601483611db0565b915061206c8261202b565b602082019050919050565b6000602082019050818103600083015261209081612054565b9050919050565b7f4e6f2067616d6520737461727465640000000000000000000000000000000000600082015250565b60006120cd600f83611db0565b91506120d882612097565b602082019050919050565b600060208201905081810360008301526120fc816120c0565b9050919050565b7f4c6173742067616d65206e6f7420656e64656400000000000000000000000000600082015250565b6000612139601383611db0565b915061214482612103565b602082019050919050565b600060208201905081810360008301526121688161212c565b9050919050565b7f4e487b7100000000000000000000000000000000000000000000000000000000600052603260045260246000fd5b60006121a98261160f565b91506121b48361160f565b9250817fffffffffffffffffffffffffffffffffffffffffffffffffffffffffffffffff04831182151516156121ed576121ec611f05565b5b828202905092915050565b7f4e487b7100000000000000000000000000000000000000000000000000000000600052601260045260246000fd5b60006122328261160f565b915061223d8361160f565b92508261224d5761224c6121f8565b5b828204905092915050565b6122618161189f565b82525050565b600060408201905061227c6000830185612258565b6122896020830184612258565b9392505050565b7f4c6173742067616d652069736e277420656e6465640000000000000000000000600082015250565b60006122c6601583611db0565b91506122d182612290565b602082019050919050565b600060208201905081810360008301526122f5816122b9565b9050919050565b7f5672662072657175657374656400000000000000000000000000000000000000600082015250565b6000612332600d83611db0565b915061233d826122fc565b602082019050919050565b6000602082019050818103600083015261236181612325565b9050919050565b6000819050919050565b61237b81612368565b82525050565b61238a81611996565b82525050565b600063ffffffff82169050919050565b6123a981612390565b82525050565b600060a0820190506123c46000830188612372565b6123d16020830187611b4d565b6123de6040830186612381565b6123eb60608301856123a0565b6123f860808301846123a0565b9695505050505050565b60008151905061241181611619565b92915050565b60006020828403121561242d5761242c61159f565b5b600061243b84828501612402565b91505092915050565b600061244f8261160f565b915061245a8361160f565b9250827fffffffffffffffffffffffffffffffffffffffffffffffffffffffffffffffff0382111561248f5761248e611f05565b5b828201905092915050565b60006124a58261160f565b91506124b08361160f565b9250826124c0576124bf6121f8565b5b82820690509291505056fea26469706673582212204981702de867f24876b444d41317a673116b3f8b353f44dbf56a3c8c64bf9e4e64736f6c634300080c0033",
  "linkReferences": {},
  "deployedLinkReferences": {}
}